:0300000001fffffe
:0300010001fffffd
:0300020001fffefd
:0300030001fffefc
:0300040001fffdfc
:0300050001fffbfd
:0300060001fff9fe
:0300070001fff7ff
:0300080001fff500
:0300090001fff301
:03000a0001fff003
:03000b0001ffec06
:03000c0001ffe908
:03000d0001ffe50b
:03000e0001ffe10e
:03000f0001ffdc12
:0300100001ffd815
:0300110001ffd21a
:0300120001ffcd1e
:0300130001ffc723
:0300140001ffc128
:0300150001ffbb2d
:0300160001ffb433
:0300170001ffad39
:0300180001ffa63f
:0300190001ff9f45
:03001a0001ff974c
:03001b0001ff8f53
:03001c0001ff865b
:03001d0001ff7d63
:03001e0001ff746b
:03001f0001ff6b73
:0300200001ff617c
:0300210001ff5785
:0300220001ff4d8e
:0300230001ff4298
:0300240001ff37a2
:0300250001ff2cac
:0300260001ff20b7
:0300270001ff15c1
:0300280001ff08cd
:0300290001fefcd9
:03002a0001feefe5
:03002b0001fee2f1
:03002c0001fed5fd
:03002d0001fec70a
:03002e0001feb917
:03002f0001feaa25
:0300300001fe9c32
:0300310001fe8d40
:0300320001fe7e4e
:0300330001fe6e5d
:0300340001fe5e6c
:0300350001fe4e7b
:0300360001fe3e8a
:0300370001fe2d9a
:0300380001fe1caa
:0300390001fe0abb
:03003a0001fdf9cc
:03003b0001fde7dd
:03003c0001fdd4ef
:03003d0001fdc200
:03003e0001fdaf12
:03003f0001fd9b25
:0300400001fd8837
:0300410001fd744a
:0300420001fd605d
:0300430001fd4b71
:0300440001fd3784
:0300450001fd2199
:0300460001fd0cad
:0300470001fcf6c3
:0300480001fce0d8
:0300490001fccaed
:03004a0001fcb303
:03004b0001fc9d18
:03004c0001fc852f
:03004d0001fc6e45
:03004e0001fc565c
:03004f0001fc3e73
:0300500001fc258b
:0300510001fc0da2
:0300520001fbf3bc
:0300530001fbdad4
:0300540001fbc0ed
:0300550001fba606
:0300560001fb8c1f
:0300570001fb7238
:0300580001fb5752
:0300590001fb3b6d
:03005a0001fb2087
:03005b0001fb04a2
:03005c0001fae8be
:03005d0001facbda
:03005e0001faaff5
:03005f0001fa9211
:0300600001fa742e
:0300610001fa574a
:0300620001fa3967
:0300630001fa1a85
:0300640001f9fca3
:0300650001f9ddc1
:0300660001f9bedf
:0300670001f99efe
:0300680001f97f1c
:0300690001f95e3c
:03006a0001f93e5b
:03006b0001f91d7b
:03006c0001f8fc9c
:03006d0001f8dbbc
:03006e0001f8b9dd
:03006f0001f898fd
:0300700001f8751f
:0300710001f85340
:0300720001f83062
:0300730001f80d84
:0300740001f7e9a8
:0300750001f7c6ca
:0300760001f7a2ed
:0300770001f77d11
:0300780001f75934
:0300790001f73458
:03007a0001f70e7d
:03007b0001f6e9a2
:03007c0001f6c3c7
:03007d0001f69dec
:03007e0001f67612
:03007f0001f65037
:0300800001f6295d
:0300810001f60184
:0300820001f5d9ac
:0300830001f5b1d3
:0300840001f589fa
:0300850001f56121
:0300860001f53849
:0300870001f50f71
:0300880001f4e59b
:0300890001f4bbc4
:03008a0001f491ed
:03008b0001f46716
:03008c0001f43c40
:03008d0001f4116a
:03008e0001f3e695
:03008f0001f3bac0
:0300900001f38eeb
:0300910001f36216
:0300920001f33641
:0300930001f3096d
:0300940001f2dc9a
:0300950001f2aec7
:0300960001f281f3
:0300970001f25320
:0300980001f2244e
:0300990001f1f67c
:03009a0001f1c7aa
:03009b0001f197d9
:03009c0001f16807
:03009d0001f13836
:03009e0001f10865
:03009f0001f0d895
:0300a00001f0a7c5
:0300a10001f076f5
:0300a20001f04525
:0300a30001f01356
:0300a40001efe188
:0300a50001efafb9
:0300a60001ef7ceb
:0300a70001ef4a1c
:0300a80001ef174e
:0300a90001eee382
:0300aa0001eeafb5
:0300ab0001ee7ce7
:0300ac0001ee471b
:0300ad0001ee134e
:0300ae0001edde83
:0300af0001eda9b7
:0300b00001ed73ec
:0300b10001ed3d21
:0300b20001ed0756
:0300b30001ecd18c
:0300b40001ec9ac2
:0300b50001ec63f8
:0300b60001ec2c2e
:0300b70001ebf466
:0300b80001ebbd9c
:0300b90001eb84d4
:0300ba0001eb4c0b
:0300bb0001eb1343
:0300bc0001eada7c
:0300bd0001eaa1b4
:0300be0001ea67ed
:0300bf0001ea2d26
:0300c00001e9f360
:0300c10001e9b999
:0300c20001e97ed3
:0300c30001e9430d
:0300c40001e90748
:0300c50001e8cc83
:0300c60001e890be
:0300c70001e853fa
:0300c80001e81735
:0300c90001e7da72
:0300ca0001e79dae
:0300cb0001e75feb
:0300cc0001e72227
:0300cd0001e6e366
:0300ce0001e6a5a3
:0300cf0001e667e0
:0300d00001e6281e
:0300d10001e5e85e
:0300d20001e5a99c
:0300d30001e569db
:0300d40001e5291a
:0300d50001e4e95a
:0300d60001e4a89a
:0300d70001e467da
:0300d80001e4261a
:0300d90001e3e45c
:0300da0001e3a29d
:0300db0001e360de
:0300dc0001e31e1f
:0300dd0001e2db62
:0300de0001e298a4
:0300df0001e255e6
:0300e00001e21129
:0300e10001e1cd6d
:0300e20001e189b0
:0300e30001e145f3
:0300e40001e10037
:0300e50001e0bb7c
:0300e60001e075c1
:0300e70001e03005
:0300e80001dfea4b
:0300e90001dfa490
:0300ea0001df5dd6
:0300eb0001df171b
:0300ec0001decf63
:0300ed0001de88a9
:0300ee0001de40f0
:0300ef0001ddf937
:0300f00001ddb07f
:0300f10001dd68c6
:0300f20001dd1f0e
:0300f30001dcd657
:0300f40001dc8d9f
:0300f50001dc43e8
:0300f60001dbf932
:0300f70001dbaf7b
:0300f80001db64c5
:0300f90001db190f
:0300fa0001dace5a
:0300fb0001da83a4
:0300fc0001da37ef
:0300fd0001d9eb3b
:0300fe0001d99f86
:0300ff0001d953d1
:0301000001d9061c
:0301010001d8b969
:0301020001d86bb6
:0301030001d81e02
:0301040001d7d050
:0301050001d7829d
:0301060001d733eb
:0301070001d6e43a
:0301080001d69588
:0301090001d646d6
:03010a0001d5f626
:03010b0001d5a675
:03010c0001d556c4
:03010d0001d50613
:03010e0001d4b564
:03010f0001d464b4
:0301100001d41205
:0301110001d3c156
:0301120001d36fa7
:0301130001d31df8
:0301140001d2ca4b
:0301150001d2779d
:0301160001d224ef
:0301170001d1d142
:0301180001d17e94
:0301190001d12ae7
:03011a0001d0d63b
:03011b0001d0818f
:03011c0001d02ce3
:03011d0001cfd738
:03011e0001cf828c
:03011f0001cf2de0
:0301200001ced736
:0301210001ce818b
:0301220001ce2ae1
:0301230001cdd437
:0301240001cd7d8d
:0301250001cd25e4
:0301260001ccce3b
:0301270001cc7692
:0301280001cc1ee9
:0301290001cbc641
:03012a0001cb6d99
:03012b0001cb14f1
:03012c0001cabb4a
:03012d0001ca62a2
:03012e0001ca08fb
:03012f0001c9ae55
:0301300001c954ae
:0301310001c8f909
:0301320001c89e63
:0301330001c843bd
:0301340001c7e818
:0301350001c78c73
:0301360001c730ce
:0301370001c6d42a
:0301380001c67885
:0301390001c61be1
:03013a0001c5be3e
:03013b0001c5619a
:03013c0001c503f7
:03013d0001c4a555
:03013e0001c447b2
:03013f0001c3e910
:0301400001c38a6e
:0301410001c32bcc
:0301420001c2cc2b
:0301430001c26d89
:0301440001c20de8
:0301450001c1ad48
:0301460001c14da7
:0301470001c0ec08
:0301480001c08b68
:0301490001c02ac8
:03014a0001bfc929
:03014b0001bf678a
:03014c0001bf05eb
:03014d0001bea34d
:03014e0001be41ae
:03014f0001bdde11
:0301500001bd7b73
:0301510001bd18d5
:0301520001bcb439
:0301530001bc519b
:0301540001bbedff
:0301550001bb8863
:0301560001bb24c6
:0301570001babf2b
:0301580001ba5a8f
:0301590001b9f4f5
:03015a0001b98f59
:03015b0001b929be
:03015c0001b8c324
:03015d0001b85c8a
:03015e0001b7f6f0
:03015f0001b78f56
:0301600001b727bd
:0301610001b6c024
:0301620001b6588b
:0301630001b5f0f3
:0301640001b5885a
:0301650001b51fc2
:0301660001b4b62b
:0301670001b44d93
:0301680001b3e4fc
:0301690001b37a65
:03016a0001b311cd
:03016b0001b2a638
:03016c0001b23ca1
:03016d0001b1d10c
:03016e0001b16676
:03016f0001b0fbe1
:0301700001b0904b
:0301710001b024b6
:0301720001afb822
:0301730001af4c8d
:0301740001aedffa
:0301750001ae7365
:0301760001ae06d1
:0301770001ad983f
:0301780001ad2bab
:0301790001acbd19
:03017a0001ac4f86
:03017b0001abe1f4
:03017c0001ab7262
:03017d0001ab04cf
:03017e0001aa943f
:03017f0001aa25ad
:0301800001a9b61c
:0301810001a9468b
:0301820001a8d6fb
:0301830001a8656b
:0301840001a7f5db
:0301850001a7844b
:0301860001a713bb
:0301870001a6a12d
:0301880001a6309d
:0301890001a5be0f
:03018a0001a54c80
:03018b0001a4d9f3
:03018c0001a46764
:03018d0001a3f4d7
:03018e0001a38149
:03018f0001a30dbc
:0301900001a29a2f
:0301910001a226a2
:0301920001a1b216
:0301930001a13d8a
:0301940001a0c9fe
:0301950001a05472
:03019600019fdee8
:03019700019f695c
:03019800019ef3d2
:03019900019e7e46
:03019a00019e07bc
:03019b00019d9132
:03019c00019d1aa8
:03019d00019ca31f
:03019e00019c2c95
:03019f00019bb50c
:0301a000019b3d83
:0301a100019ac5fb
:0301a200019a4d72
:0301a3000199d5ea
:0301a40001995c62
:0301a5000198e3db
:0301a60001986a53
:0301a7000197f1cc
:0301a80001977745
:0301a9000196fdbf
:0301aa0001968338
:0301ab00019609b1
:0301ac0001958e2c
:0301ad00019513a6
:0301ae0001949821
:0301af0001941d9b
:0301b0000193a117
:0301b10001932691
:0301b2000192a90e
:0301b30001922d89
:0301b4000191b105
:0301b50001913481
:0301b6000190b7fe
:0301b70001903a7a
:0301b800018fbcf8
:0301b900018f3e75
:0301ba00018ec0f3
:0301bb00018e4270
:0301bc00018dc4ee
:0301bd00018d456c
:0301be00018cc6eb
:0301bf00018c4769
:0301c000018bc7e9
:0301c100018b4867
:0301c200018ac8e7
:0301c300018a4866
:0301c4000189c7e7
:0301c50001894766
:0301c6000188c6e7
:0301c70001884567
:0301c8000187c3e9
:0301c90001874269
:0301ca000186c0eb
:0301cb0001863e6c
:0301cc000185bcee
:0301cd0001853970
:0301ce000184b6f3
:0301cf0001843375
:0301d0000183b0f8
:0301d10001832d7a
:0301d2000182a9fe
:0301d30001822581
:0301d4000181a105
:0301d50001811d88
:0301d6000180980d
:0301d70001801391
:0301d800017f8e16
:0301d900017f099a
:0301da00017e8320
:0301db00017dfda6
:0301dc00017d772b
:0301dd00017cf1b1
:0301de00017c6b36
:0301df00017be4bd
:0301e000017b5d43
:0301e100017ad6ca
:0301e200017a4f50
:0301e3000179c7d8
:0301e40001793f5f
:0301e5000178b7e7
:0301e60001782f6e
:0301e7000177a6f7
:0301e80001771e7e
:0301e90001769507
:0301ea0001760c8f
:0301eb0001758219
:0301ec000174f9a2
:0301ed0001746f2b
:0301ee000173e5b5
:0301ef0001735a3f
:0301f0000172d0c9
:0301f10001724553
:0301f2000171bade
:0301f30001712f68
:0301f4000170a3f4
:0301f5000170187e
:0301f600016f8c0a
:0301f700016f0095
:0301f800016e7421
:0301f900016de7ae
:0301fa00016d5a3a
:0301fb00016ccdc7
:0301fc00016c4053
:0301fd00016bb3e0
:0301fe00016b256d
:0301ff00016a97fb
:03020000016a0987
:0302010001697b15
:030202000168eca4
:0302030001685e31
:030204000167cfc0
:030205000167404e
:030206000166b0de
:030207000166216c
:03020800016591fc
:030209000165018b
:03020a000164711b
:03020b000163e0ac
:03020c000163503b
:03020d000162bfcc
:03020e0001622e5c
:03020f0001619cee
:0302100001610b7e
:0302110001607910
:03021200015fe7a2
:03021300015f5533
:03021400015ec3c5
:03021500015e3057
:03021600015d9dea
:03021700015d0a7c
:03021800015c770f
:03021900015be4a2
:03021a00015b5035
:03021b00015abcc9
:03021c00015a285c
:03021d00015994f0
:03021e000158ff85
:03021f0001586b18
:030220000157d6ad
:0302210001574141
:030222000156acd6
:030223000156166b
:0302240001558001
:030225000154ea97
:030226000154542c
:030227000153bec2
:0302280001532758
:03022900015291ee
:03022a000151fa85
:03022b000151631b
:03022c000150cbb3
:03022d0001503449
:03022e00014f9ce1
:03022f00014f0478
:03023000014e6c10
:03023100014dd4a8
:03023200014d3b40
:03023300014ca2d9
:03023400014c0971
:03023500014b700a
:03023600014ad7a3
:03023700014a3d3c
:030238000149a4d5
:0302390001490a6e
:03023a0001487008
:03023b000147d5a3
:03023c0001473b3c
:03023d000146a0d7
:03023e0001460571
:03023f0001456a0c
:030240000144cfa7
:0302410001443342
:03024200014397de
:030243000142fb7a
:0302440001425f15
:030245000141c3b1
:030246000141274c
:0302470001408ae9
:03024800013fed86
:03024900013f5022
:03024a00013eb3bf
:03024b00013e155c
:03024c00013d78f9
:03024d00013cda97
:03024e00013c3c34
:03024f00013b9dd3
:03025000013aff71
:03025100013a600f
:030252000139c2ad
:030253000139234b
:03025400013883eb
:030255000137e48a
:0302560001374528
:030257000136a5c8
:0302580001360567
:0302590001356507
:03025a000134c5a7
:03025b0001342447
:03025c00013383e8
:03025d000132e388
:03025e0001324228
:03025f000131a0ca
:030260000130ff6b
:0302610001305d0c
:03026200012fbcad
:03026300012f1a4e
:03026400012e77f1
:03026500012dd593
:03026600012d3334
:03026700012c90d7
:03026800012bed7a
:03026900012b4a1c
:03026a00012aa7bf
:03026b00012a0362
:03026c0001296005
:03026d000128bca9
:03026e000128184c
:03026f00012774f0
:030270000126d094
:0302710001262b38
:03027200012587dc
:030273000124e281
:0302740001243d25
:03027500012398ca
:030276000122f270
:0302770001224d14
:030278000121a7ba
:030279000121015f
:03027a0001205b05
:03027b00011fb5ab
:03027c00011f0e51
:03027d00011e68f7
:03027e00011dc19e
:03027f00011d1a44
:03028000011c73eb
:03028100011bcc92
:03028200011b2439
:03028300011a7de0
:030284000119d588
:0302850001192d2f
:03028600011885d7
:030287000117dd7f
:0302880001173427
:0302890001168ccf
:03028a000115e378
:03028b0001153a20
:03028c00011491c9
:03028d000113e872
:03028e0001133e1b
:03028f00011294c5
:030290000111eb6e
:0302910001114117
:03029200011097c1
:03029300010fec6c
:03029400010f4215
:03029500010e97c0
:03029600010ded6a
:03029700010d4214
:03029800010c96c0
:03029900010beb6b
:03029a00010b4015
:03029b00010a94c1
:03029c000109e96c
:03029d0001093d17
:03029e00010891c3
:03029f000107e470
:0302a0000107381b
:0302a10001068bc8
:0302a2000105df74
:0302a30001053220
:0302a400010485cd
:0302a5000103d87a
:0302a60001032a27
:0302a70001027dd4
:0302a8000101cf82
:0302a9000101212f
:0302aa00010074dc
:0302ab0000ffc58c
:0302ac0000ff1739
:0302ad0000fe69e7
:0302ae0000fdba96
:0302af0000fd0c43
:0302b00000fc5df2
:0302b10000fbaea1
:0302b20000fafe51
:0302b30000fa4fff
:0302b40000f9a0ae
:0302b50000f8f05e
:0302b60000f8400d
:0302b70000f790bd
:0302b80000f6e06d
:0302b90000f6301c
:0302ba0000f580cc
:0302bb0000f4cf7d
:0302bc0000f41f2c
:0302bd0000f36edd
:0302be0000f2bd8e
:0302bf0000f20c3e
:0302c00000f15af0
:0302c10000f0a9a1
:0302c20000eff852
:0302c30000ef4603
:0302c40000ee94b5
:0302c50000ede267
:0302c60000ed3018
:0302c70000ec7eca
:0302c80000ebcb7d
:0302c90000eb192e
:0302ca0000ea66e1
:0302cb0000e9b394
:0302cc0000e90046
:0302cd0000e84df9
:0302ce0000e79aac
:0302cf0000e6e75f
:0302d00000e63312
:0302d10000e57fc6
:0302d20000e4cc79
:0302d30000e4182c
:0302d40000e364e0
:0302d50000e2af95
:0302d60000e1fb49
:0302d70000e146fd
:0302d80000e092b1
:0302d90000dfdd66
:0302da0000df281a
:0302db0000de73cf
:0302dc0000ddbe84
:0302dd0000dd0938
:0302de0000dc53ee
:0302df0000db9ea3
:0302e00000dae859
:0302e10000da320e
:0302e20000d97cc4
:0302e30000d8c67a
:0302e40000d8102f
:0302e50000d75ae5
:0302e60000d6a39c
:0302e70000d5ed52
:0302e80000d53608
:0302e90000d47fbf
:0302ea0000d3c876
:0302eb0000d3112c
:0302ec0000d25ae3
:0302ed0000d1a29b
:0302ee0000d0eb52
:0302ef0000d03309
:0302f00000cf7bc1
:0302f10000cec478
:0302f20000ce0c2f
:0302f30000cd53e8
:0302f40000cc9ba0
:0302f50000cbe358
:0302f60000cb2a10
:0302f70000ca72c8
:0302f80000c9b981
:0302f90000c90039
:0302fa0000c847f2
:0302fb0000c78eab
:0302fc0000c6d564
:0302fd0000c61b1d
:0302fe0000c562d6
:0302ff0000c4a890
:0303000000c3ef48
:0303010000c33501
:0303020000c27bbb
:0303030000c1c175
:0303040000c1072e
:0303050000c04ce9
:0303060000bf92a3
:0303070000bed85d
:0303080000be1d17
:0303090000bd62d2
:03030a0000bca78d
:03030b0000bbec48
:03030c0000bb3102
:03030d0000ba76bd
:03030e0000b9bb78
:03030f0000b8ff34
:0303100000b844ee
:0303110000b788aa
:0303120000b6cc66
:0303130000b61120
:0303140000b555dc
:0303150000b49899
:0303160000b3dc55
:0303170000b32010
:0303180000b264cc
:0303190000b1a789
:03031a0000b0ea46
:03031b0000b02e01
:03031c0000af71be
:03031d0000aeb47b
:03031e0000adf738
:03031f0000ad3af4
:0303200000ac7cb2
:0303210000abbf6f
:0303220000ab022b
:0303230000aa44e9
:0303240000a986a7
:0303250000a8c964
:0303260000a80b21
:0303270000a74ddf
:0303280000a68f9d
:0303290000a5d15b
:03032a0000a51219
:03032b0000a454d7
:03032c0000a39596
:03032d0000a2d754
:03032e0000a21812
:03032f0000a159d1
:0303300000a09b8f
:03033100009fdc4e
:03033200009f1d0c
:03033300009e5dcc
:03033400009d9e8b
:03033500009cdf4a
:03033600009c1f09
:03033700009b60c8
:03033800009aa088
:030339000099e147
:03033a0000992106
:03033b00009861c6
:03033c000097a186
:03033d000096e146
:03033e0000962105
:03033f00009560c6
:030340000094a086
:030341000093df47
:0303420000931f06
:0303430000925ec7
:0303440000919e87
:030345000090dd48
:0303460000901c08
:03034700008f5bc9
:03034800008e9a8a
:03034900008dd94b
:03034a00008d170c
:03034b00008c56cd
:03034c00008b958e
:03034d00008ad350
:03034e00008a1210
:03034f00008950d2
:0303500000888e94
:030351000087cc56
:0303520000870b16
:03035300008649d8
:030354000085879a
:030355000084c45d
:030356000084021e
:03035700008340e0
:0303580000827da3
:030359000081bb65
:03035a000080f828
:03035b00008036e9
:03035c00007f73ac
:03035d00007eb06f
:03035e00007dee31
:03035f00007d2bf3
:03036000007c68b6
:03036100007ba579
:03036200007ae13d
:03036300007a1eff
:0303640000795bc2
:0303650000789885
:030366000077d449
:030367000077110b
:0303680000764dcf
:0303690000758993
:03036a000074c656
:03036b0000740219
:03036c0000733edd
:03036d0000727aa1
:03036e000071b665
:03036f000070f229
:0303700000702eec
:03037100006f6ab0
:03037200006ea575
:03037300006de139
:03037400006d1dfc
:03037500006c58c1
:03037600006b9485
:03037700006acf4a
:03037800006a0a0e
:03037900006946d2
:03037a0000688197
:03037b000067bc5c
:03037c000066f721
:03037d00006632e5
:03037e0000656daa
:03037f000064a86f
:030380000063e334
:0303810000631df9
:03038200006258be
:0303830000619383
:030384000060cd49
:030385000060080d
:03038600005f42d3
:03038700005e7d98
:03038800005db75e
:03038900005cf223
:03038a00005c2ce8
:03038b00005b66ae
:03038c00005aa074
:03038d000059da3a
:03038e00005914ff
:03038f0000584ec5
:030390000057888b
:030391000056c251
:030392000055fc17
:03039300005536dc
:0303940000546fa3
:030395000053a969
:030396000052e32f
:0303970000521cf5
:03039800005156bb
:0303990000508f82
:03039a00004fc948
:03039b00004f020e
:03039c00004e3bd5
:03039d00004d759b
:03039e00004cae62
:03039f00004be729
:0303a000004b20ef
:0303a100004a59b6
:0303a2000049927d
:0303a3000048cb44
:0303a4000048040a
:0303a50000473dd1
:0303a60000467698
:0303a7000045af5f
:0303a8000044e826
:0303a900004420ed
:0303aa00004359b4
:0303ab000042927b
:0303ac000041ca43
:0303ad0000410309
:0303ae0000403cd0
:0303af00003f7498
:0303b000003eac60
:0303b100003de527
:0303b200003d1dee
:0303b300003c56b5
:0303b400003b8e7d
:0303b500003ac645
:0303b6000039ff0c
:0303b700003937d3
:0303b80000386f9b
:0303b9000037a763
:0303ba000036df2b
:0303bb00003617f2
:0303bc0000354fba
:0303bd0000348782
:0303be000033bf4a
:0303bf000032f712
:0303c00000322fd9
:0303c100003167a1
:0303c20000309f69
:0303c300002fd731
:0303c400002f0ff8
:0303c500002e46c1
:0303c600002d7e89
:0303c700002cb651
:0303c800002bee19
:0303c900002b25e1
:0303ca00002a5da9
:0303cb0000299472
:0303cc000028cc3a
:0303cd0000280401
:0303ce0000273bca
:0303cf0000267392
:0303d0000025aa5b
:0303d1000024e223
:0303d200002419eb
:0303d300002351b3
:0303d4000022887c
:0303d5000021bf45
:0303d6000020f70d
:0303d70000202ed5
:0303d800001f659e
:0303d900001e9d66
:0303da00001dd42f
:0303db00001d0bf7
:0303dc00001c42c0
:0303dd00001b7a88
:0303de00001ab151
:0303df000019e81a
:0303e00000191fe2
:0303e100001857aa
:0303e20000178e73
:0303e3000016c53c
:0303e4000015fc05
:0303e500001533cd
:0303e60000146a96
:0303e7000013a15f
:0303e8000012d828
:0303e90000120ff0
:0303ea00001146b9
:0303eb0000107e81
:0303ec00000fb54a
:0303ed00000eec13
:0303ee00000e23db
:0303ef00000d5aa4
:0303f000000c916d
:0303f100000bc836
:0303f200000affff
:0303f300000a36c7
:0303f40000096d90
:0303f5000008a459
:0303f6000007db22
:0303f700000711eb
:0303f800000648b4
:0303f90000057f7d
:0303fa000004b646
:0303fb000003ed0f
:0303fc00000324d7
:0303fd0000025ba0
:0303fe0000019269
:0303ff000000c932
:03040000000000f9
:00000001FF
