:03000000000000fd
:0300010003ff37c3
:0300020003fe6e8c
:0300030003fda555
:0300040003fcdc1e
:0300050003fc13e6
:0300060003fb4aaf
:0300070003fa8178
:0300080003f9b841
:0300090003f8ef0a
:03000a0003f825d3
:03000b0003f75c9c
:03000c0003f69365
:03000d0003f5ca2e
:03000e0003f501f6
:03000f0003f438bf
:0300100003f36f88
:0300110003f2a651
:0300120003f1dd1a
:0300130003f114e2
:0300140003f04bab
:0300150003ef8274
:0300160003eeba3c
:0300170003edf105
:0300180003ed28cd
:0300190003ec5f96
:03001a0003eb965f
:03001b0003eacd28
:03001c0003ea04f0
:03001d0003e93bb9
:03001e0003e87282
:03001f0003e7a94b
:0300200003e6e113
:0300210003e618db
:0300220003e54fa4
:0300230003e4866d
:0300240003e3be35
:0300250003e2f5fe
:0300260003e22cc6
:0300270003e1638f
:0300280003e09b57
:0300290003dfd220
:03002a0003df09e8
:03002b0003de41b0
:03002c0003dd7879
:03002d0003dcaf42
:03002e0003dbe70a
:03002f0003db1ed2
:0300300003da569a
:0300310003d98d63
:0300320003d8c52b
:0300330003d7fcf4
:0300340003d734bb
:0300350003d66c83
:0300360003d5a34c
:0300370003d4db14
:0300380003d412dc
:0300390003d34aa4
:03003a0003d2826c
:03003b0003d1ba34
:03003c0003d0f1fd
:03003d0003d029c4
:03003e0003cf618c
:03003f0003ce9954
:0300400003cdd11c
:0300410003cd09e3
:0300420003cc41ab
:0300430003cb7973
:0300440003cab13b
:0300450003c9e903
:0300460003c921ca
:0300470003c85992
:0300480003c7915a
:0300490003c6c922
:03004a0003c601e9
:03004b0003c53ab0
:03004c0003c47278
:03004d0003c3aa40
:03004e0003c2e307
:03004f0003c21bce
:0300500003c15495
:0300510003c08c5d
:0300520003bfc425
:0300530003befdec
:0300540003be36b2
:0300550003bd6e7a
:0300560003bca741
:0300570003bbe008
:0300580003bb18cf
:0300590003ba5196
:03005a0003b98a5d
:03005b0003b8c324
:03005c0003b7fceb
:03005d0003b735b1
:03005e0003b66e78
:03005f0003b5a73f
:0300600003b4e006
:0300610003b419cc
:0300620003b35293
:0300630003b28b5a
:0300640003b1c520
:0300650003b0fee7
:0300660003b037ad
:0300670003af7173
:0300680003aeaa3a
:0300690003ade400
:03006a0003ad1dc6
:03006b0003ac578c
:03006c0003ab9152
:03006d0003aaca19
:03006e0003aa04de
:03006f0003a93ea4
:0300700003a8786a
:0300710003a7b230
:0300720003a6ecf6
:0300730003a626bb
:0300740003a56081
:0300750003a49a47
:0300760003a3d40d
:0300770003a30ed2
:0300780003a24997
:0300790003a1835d
:03007a0003a0be22
:03007b00039ff8e8
:03007c00039f33ac
:03007d00039e6d72
:03007e00039da837
:03007f00039ce3fc
:03008000039c1dc1
:03008100039b5886
:03008200039a934b
:030083000399ce10
:03008400039909d4
:0300850003984499
:0300860003977f5e
:030087000396ba23
:030088000395f6e7
:03008900039531ab
:03008a0003946c70
:03008b000393a834
:03008c000392e3f9
:03008d0003921fbc
:03008e0003915b80
:03008f0003909645
:03009000038fd209
:03009100038f0ecc
:03009200038e4a90
:03009300038d8654
:03009400038cc218
:03009500038bfedc
:03009600038b3a9f
:03009700038a7762
:030098000389b326
:030099000388efea
:03009a0003882cac
:03009b0003876870
:03009c000386a533
:03009d000385e2f6
:03009e0003851fb8
:03009f0003845b7c
:0300a0000383983f
:0300a1000382d502
:0300a200038212c4
:0300a30003815086
:0300a40003808d49
:0300a500037fca0c
:0300a600037f08cd
:0300a700037e4590
:0300a800037d8352
:0300a900037cc015
:0300aa00037bfed7
:0300ab00037b3c98
:0300ac00037a795b
:0300ad000379b71d
:0300ae000378f5df
:0300af000378349f
:0300b00003777261
:0300b1000376b023
:0300b2000375eee5
:0300b30003752da5
:0300b40003746b67
:0300b5000373aa28
:0300b6000372e9e9
:0300b700037227aa
:0300b8000371666b
:0300b9000370a52c
:0300ba00036fe4ed
:0300bb00036f23ad
:0300bc00036e626e
:0300bd00036da22e
:0300be00036ce1ef
:0300bf00036c21ae
:0300c000036b606f
:0300c100036aa02f
:0300c2000369dff0
:0300c30003691faf
:0300c40003685f6f
:0300c50003679f2f
:0300c6000366dfef
:0300c70003661fae
:0300c8000365606d
:0300c9000364a02d
:0300ca000363e1ec
:0300cb00036321ab
:0300cc000362626a
:0300cd000361a329
:0300ce000360e3e9
:0300cf00036024a7
:0300d000035f6566
:0300d100035ea724
:0300d200035de8e3
:0300d300035d29a1
:0300d400035c6b5f
:0300d500035bac1e
:0300d600035aeedc
:0300d700035a2f9a
:0300d80003597158
:0300d9000358b316
:0300da000357f5d4
:0300db0003573791
:0300dc0003567a4e
:0300dd000355bc0c
:0300de000354feca
:0300df0003544186
:0300e00003538443
:0300e1000352c601
:0300e200035209bd
:0300e30003514c7a
:0300e40003508f37
:0300e500034fd2f4
:0300e600034f16af
:0300e700034e596c
:0300e800034d9c29
:0300e900034ce0e5
:0300ea00034c24a0
:0300eb00034b685c
:0300ec00034aab19
:0300ed000349efd5
:0300ee000349348f
:0300ef000348784b
:0300f0000347bc07
:0300f100034701c1
:0300f2000346457d
:0300f30003458a38
:0300f4000344cff3
:0300f500034414ad
:0300f60003435968
:0300f70003429e23
:0300f8000341e3de
:0300f90003412898
:0300fa0003406e52
:0300fb00033fb40c
:0300fc00033ef9c7
:0300fd00033e3f80
:0300fe00033d853a
:0300ff00033ccbf4
:03010000033c11ac
:03010100033b5865
:03010200033a9e1f
:030103000339e5d8
:0301040003392b91
:030105000338724a
:030106000337b903
:03010700033700bb
:0301080003364774
:0301090003358e2d
:03010a000334d6e5
:03010b0003341d9d
:03010c0003336555
:03010d000332ad0d
:03010e000331f4c6
:03010f0003313c7d
:0301100003308534
:03011100032fcdec
:03011200032f15a3
:03011300032e5e5a
:03011400032da612
:03011500032cefc9
:03011600032c387f
:03011700032b8136
:03011800032acaed
:03011900032a13a3
:03011a0003295d59
:03011b000328a610
:03011c000327f0c6
:03011d0003273a7b
:03011e0003268431
:03011f000325cee7
:030120000325189c
:0301210003246252
:030122000323ad07
:030123000322f7bd
:0301240003224271
:0301250003218d26
:030126000320d8db
:030127000320238f
:03012800031f6e44
:03012900031ebaf8
:03012a00031e05ac
:03012b00031d5160
:03012c00031c9c15
:03012d00031be8c9
:03012e00031b347c
:03012f00031a812f
:030130000319cde3
:0301310003191996
:0301320003186649
:030133000317b3fc
:03013400031700ae
:0301350003164d61
:0301360003159a14
:030137000314e7c7
:0301380003143578
:030139000313822b
:03013a000312d0dd
:03013b0003121e8e
:03013c0003116c40
:03013d000310baf2
:03013e00031008a3
:03013f00030f5754
:03014000030ea605
:03014100030df4b7
:03014200030d4367
:03014300030c9218
:03014400030be1c9
:03014500030b3178
:03014600030a8029
:030147000309d0d9
:0301480003092088
:0301490003087038
:03014a000307c0e8
:03014b0003071097
:03014c0003066047
:03014d000305b1f6
:03014e00030502a4
:03014f0003045254
:030150000303a303
:030151000302f4b2
:030152000302465f
:030153000301970e
:030154000300e9bc
:0301550003003b69
:0301560002ff8c19
:0301570002fedfc6
:0301580002fe3173
:0301590002fd8321
:03015a0002fcd6ce
:03015b0002fc287b
:03015c0002fb7b28
:03015d0002faced5
:03015e0002fa2181
:03015f0002f9752d
:0301600002f8c8da
:0301610002f81c85
:0301620002f76f32
:0301630002f6c3de
:0301640002f61789
:0301650002f56c34
:0301660002f4c0e0
:0301670002f4158a
:0301680002f36a35
:0301690002f2bee1
:03016a0002f2138b
:03016b0002f16935
:03016c0002f0bee0
:03016d0002f01489
:03016e0002ef6934
:03016f0002eebfde
:0301700002ee1587
:0301710002ed6c30
:0301720002ecc2da
:0301730002ec1883
:0301740002eb6f2c
:0301750002eac6d5
:0301760002ea1d7d
:0301770002e97426
:0301780002e8ccce
:0301790002e82376
:03017a0002e77b1e
:03017b0002e6d3c6
:03017c0002e62b6d
:03017d0002e58315
:03017e0002e4dcbc
:03017f0002e43463
:0301800002e38d0a
:0301810002e2e6b1
:0301820002e23f57
:0301830002e198fe
:0301840002e0f2a4
:0301850002e04b4a
:0301860002dfa5f0
:0301870002deff96
:0301880002de593b
:0301890002ddb3e1
:03018a0002dd0e85
:03018b0002dc682b
:03018c0002dbc3d0
:03018d0002db1e74
:03018e0002da7919
:03018f0002d9d5bd
:0301900002d93061
:0301910002d88c05
:0301920002d7e8a9
:0301930002d7444c
:0301940002d6a0f0
:0301950002d5fd93
:0301960002d55936
:0301970002d4b6d9
:0301980002d4137b
:0301990002d3701e
:03019a0002d2cdc1
:03019b0002d22b62
:03019c0002d18904
:03019d0002d0e6a7
:03019e0002d04448
:03019f0002cfa3e9
:0301a00002cf018a
:0301a10002ce602b
:0301a20002cdbecd
:0301a30002cd1d6d
:0301a40002cc7d0d
:0301a50002cbdcae
:0301a60002cb3b4e
:0301a70002ca9bee
:0301a80002c9fb8e
:0301a90002c95b2d
:0301aa0002c8bbcd
:0301ab0002c81c6b
:0301ac0002c77d0a
:0301ad0002c6ddaa
:0301ae0002c63e48
:0301af0002c5a0e6
:0301b00002c50184
:0301b10002c46322
:0301b20002c3c4c1
:0301b30002c3265e
:0301b40002c288fc
:0301b50002c1eb99
:0301b60002c14d36
:0301b70002c0b0d3
:0301b80002c0136f
:0301b90002bf760c
:0301ba0002bed9a9
:0301bb0002be3d44
:0301bc0002bda1e0
:0301bd0002bd057b
:0301be0002bc6917
:0301bf0002bbcdb3
:0301c00002bb314e
:0301c10002ba96e9
:0301c20002b9fb84
:0301c30002b9601e
:0301c40002b8c5b9
:0301c50002b82b52
:0301c60002b790ed
:0301c70002b6f687
:0301c80002b65c20
:0301c90002b5c3b9
:0301ca0002b52952
:0301cb0002b490eb
:0301cc0002b3f784
:0301cd0002b35e1c
:0301ce0002b2c5b5
:0301cf0002b22c4d
:0301d00002b194e5
:0301d10002b0fc7d
:0301d20002b06414
:0301d30002afccac
:0301d40002af3542
:0301d50002ae9dda
:0301d60002ae0670
:0301d70002ad6f07
:0301d80002acd99d
:0301d90002ac4233
:0301da0002abacc9
:0301db0002ab165e
:0301dc0002aa80f4
:0301dd0002a9ea8a
:0301de0002a9541f
:0301df0002a8bfb4
:0301e00002a82a48
:0301e10002a795dd
:0301e20002a70170
:0301e30002a66c05
:0301e40002a5d899
:0301e50002a5442c
:0301e60002a4b0c0
:0301e70002a41c53
:0301e80002a389e6
:0301e90002a2f679
:0301ea0002a2630b
:0301eb0002a1d09e
:0301ec0002a13d30
:0301ed0002a0abc2
:0301ee0002a01953
:0301ef00029f87e5
:0301f000029ef577
:0301f100029e6407
:0301f200029dd299
:0301f300029d4129
:0301f400029cb0ba
:0301f500029c2049
:0301f600029b8fda
:0301f700029aff6a
:0301f800029a6ff9
:0301f9000299df89
:0301fa0002995017
:0301fb000298c0a7
:0301fc0002983135
:0301fd000297a2c4
:0301fe0002971451
:0301ff00029685e0
:030200000295f76d
:03020100029569fa
:030202000294db88
:0302030002944d15
:030204000293c0a2
:030205000293332e
:030206000292a6bb
:0302070002921947
:0302080002918cd4
:030209000291005f
:03020a00029074eb
:03020b00028fe877
:03020c00028f5d01
:03020d00028ed18d
:03020e00028e4617
:03020f00028dbba2
:03021000028d302c
:03021100028ca6b6
:03021200028c1b40
:03021300028b91ca
:03021400028b0753
:03021500028a7edc
:030216000289f466
:0302170002896bee
:030218000288e277
:0302190002885afe
:03021a000287d187
:03021b000287490e
:03021c000286c196
:03021d000286391d
:03021e000285b1a5
:03021f0002852a2b
:030220000284a3b2
:0302210002841c38
:03022200028395bf
:0302230002830f44
:03022400028289ca
:030225000282034f
:0302260002817dd5
:030227000280f75b
:03022800028072df
:03022900027fed64
:03022a00027f68e8
:03022b00027ee36d
:03022c00027e5ff0
:03022d00027ddb74
:03022e00027d57f7
:03022f00027cd37b
:03023000027c50fd
:03023100027bcd80
:03023200027b4a02
:03023300027ac785
:03023400027a4407
:030235000279c289
:030236000279400a
:030237000278be8c
:0302380002783d0c
:030239000277bb8e
:03023a0002773a0e
:03023b000276b98f
:03023c000276390e
:03023d000275b88f
:03023e000275380e
:03023f000274b88e
:030240000274390c
:030241000273b98c
:0302420002733a0a
:030243000272bb89
:0302440002723c07
:030245000271be85
:0302460002714002
:030247000270c280
:03024800027044fd
:03024900026fc67b
:03024a00026f49f7
:03024b00026ecc74
:03024c00026e4ff0
:03024d00026dd36c
:03024e00026d57e7
:03024f00026cda64
:03025000026c5fde
:03025100026be35a
:03025200026b68d4
:03025300026aed4f
:03025400026a72c9
:030255000269f744
:0302560002697dbd
:0302570002690336
:03025800026889b0
:0302590002680f29
:03025a00026796a2
:03025b0002671d1a
:03025c000266a493
:03025d0002662b0b
:03025e000265b383
:03025f0002653bfa
:030260000264c372
:0302610002644be9
:030262000263d460
:0302630002635dd6
:030264000262e64d
:0302650002626fc3
:030266000261f939
:03026700026182af
:0302680002610d23
:0302690002609799
:03026a000260220d
:03026b00025fac83
:03026c00025f37f7
:03026d00025ec36b
:03026e00025e4edf
:03026f00025dda53
:03027000025d66c6
:03027100025cf339
:03027200025c7fac
:03027300025c0c1e
:03027400025b9991
:03027500025b2702
:03027600025ab475
:03027700025a42e6
:030278000259d058
:0302790002595fc8
:03027a000258ed3a
:03027b0002587caa
:03027c0002580b1a
:03027d0002579b8a
:03027e0002572afa
:03027f000256ba6a
:0302800002564ad9
:030281000255db48
:0302820002556cb6
:030283000254fc26
:0302840002548e93
:0302850002541f01
:030286000253b16f
:03028700025343dc
:030288000252d54a
:03028900025268b6
:03028a000251fa24
:03028b0002518d90
:03028c00025121fb
:03028d000250b468
:03028e00025048d3
:03028f00024fdc3f
:03029000024f70aa
:03029100024f0514
:03029200024e9a7f
:03029300024e2fe9
:03029400024dc454
:03029500024d5abd
:03029600024cef28
:03029700024c8690
:03029800024c1cf9
:03029900024bb362
:03029a00024b4aca
:03029b00024ae133
:03029c00024a789b
:03029d00024a1002
:03029e000249a86a
:03029f00024940d1
:0302a0000248d938
:0302a1000248719f
:0302a20002480a05
:0302a3000247a46b
:0302a40002473dd1
:0302a5000246d737
:0302a6000246719c
:0302a70002460c00
:0302a8000245a666
:0302a900024541ca
:0302aa000244dc2f
:0302ab0002447892
:0302ac00024413f6
:0302ad000243af5a
:0302ae0002434cbc
:0302af000242e820
:0302b00002428582
:0302b100024222e4
:0302b2000241bf47
:0302b30002415da8
:0302b4000240fb0a
:0302b5000240996b
:0302b600024037cc
:0302b700023fd62d
:0302b800023f758d
:0302b900023f14ed
:0302ba00023eb34e
:0302bb00023e53ad
:0302bc00023df30d
:0302bd00023d936c
:0302be00023d34ca
:0302bf00023cd529
:0302c000023c7687
:0302c100023c17e5
:0302c200023bb943
:0302c300023b5ba0
:0302c400023afdfe
:0302c500023a9f5b
:0302c600023a42b7
:0302c7000239e514
:0302c80002398870
:0302c90002392ccb
:0302ca000238d027
:0302cb0002387482
:0302cc00023818dd
:0302cd000237bd38
:0302ce0002376292
:0302cf00023707ec
:0302d0000236ac47
:0302d100023652a0
:0302d2000235f8fa
:0302d30002359e53
:0302d400023545ab
:0302d5000234ec04
:0302d6000234935c
:0302d70002343ab4
:0302d8000233e20c
:0302d90002338a63
:0302da00023332ba
:0302db000232db11
:0302dc0002328368
:0302dd0002322cbe
:0302de000231d614
:0302df0002317f6a
:0302e000023129bf
:0302e1000230d315
:0302e20002307e69
:0302e300023029bd
:0302e400022fd412
:0302e500022f7f66
:0302e600022f2aba
:0302e700022ed60e
:0302e800022e8261
:0302e900022e2fb3
:0302ea00022ddc06
:0302eb00022d8958
:0302ec00022d36aa
:0302ed00022ce3fd
:0302ee00022c914e
:0302ef00022c3f9f
:0302f000022beef0
:0302f100022b9c41
:0302f200022b4b91
:0302f300022afae2
:0302f400022aaa31
:0302f500022a5a80
:0302f600022a0acf
:0302f7000229ba1f
:0302f80002296b6d
:0302f90002291cbb
:0302fa000228cd0a
:0302fb0002287e58
:0302fc00022830a5
:0302fd000227e2f3
:0302fe000227953f
:0302ff000227478c
:030300000226fad8
:030301000226ad24
:030302000226616f
:03030300022615ba
:030304000225c906
:0303050002257d51
:030306000225329b
:030307000224e7e6
:0303080002249c30
:030309000224517a
:03030a00022407c3
:03030b000223bd0d
:03030c0002237356
:03030d0002232a9e
:03030e000222e1e7
:03030f000222982f
:0303100002225076
:03031100022207be
:030312000221c005
:030313000221784c
:0303140002213192
:030315000220e9da
:030316000220a31f
:0303170002205c65
:03031800022016aa
:03031900021fd0f0
:03031a00021f8b34
:03031b00021f4579
:03031c00021f00bd
:03031d00021ebb02
:03031e00021e7745
:03031f00021e3388
:03032000021defcc
:03032100021dab0f
:03032200021d6851
:03032300021d2593
:03032400021ce2d6
:03032500021ca017
:03032600021c5e58
:03032700021c1c99
:03032800021bdadb
:03032900021b991b
:03032a00021b585b
:03032b00021b179b
:03032c00021ad7db
:03032d00021a971a
:03032e00021a5759
:03032f00021a1897
:030330000219d8d7
:0303310002199915
:0303320002195b52
:0303330002191d8f
:030334000218dece
:030335000218a10a
:0303360002186347
:0303370002182683
:030338000217e9c0
:030339000217adfb
:03033a0002177037
:03033b0002173472
:03033c000216f9ad
:03033d000216bde8
:03033e0002168222
:03033f000216475c
:0303400002160d95
:030341000215d3cf
:0303420002159908
:0303430002155f41
:0303440002152679
:030345000214edb2
:030346000214b4ea
:0303470002147c21
:0303480002144359
:0303490002140c8f
:03034a000213d4c7
:03034b0002139dfd
:03034c0002136633
:03034d0002132f69
:03034e000212f99f
:03034f000212c3d4
:0303500002128d09
:030351000212573e
:0303520002122272
:030353000211eda7
:030354000211b9da
:030355000211840e
:0303560002115140
:0303570002111d73
:030358000210e9a7
:030359000210b6d9
:03035a000210840a
:03035b000210513c
:03035c0002101f6d
:03035d00020fed9f
:03035e00020fbbd0
:03035f00020f8a00
:03036000020f5930
:03036100020f2860
:03036200020ef890
:03036300020ec8bf
:03036400020e98ee
:03036500020e691c
:03036600020e394b
:03036700020e0a79
:03036800020ddca7
:03036900020dadd5
:03036a00020d7f02
:03036b00020d522e
:03036c00020d245b
:03036d00020cf788
:03036e00020ccab4
:03036f00020c9edf
:03037000020c720a
:03037100020c4635
:03037200020c1a60
:03037300020bef8b
:03037400020bc4b5
:03037500020b99df
:03037600020b6f08
:03037700020b4531
:03037800020b1b5a
:03037900020af184
:03037a00020ac8ac
:03037b00020a9fd4
:03037c00020a77fb
:03037d00020a4f22
:03037e00020a2749
:03037f000209ff71
:030380000209d798
:030381000209b0be
:0303820002098ae3
:0303830002096309
:0303840002093d2e
:0303850002091753
:030386000208f278
:030387000208cc9d
:030388000208a7c1
:03038900020883e4
:03038a0002085e08
:03038b0002083a2b
:03038c000208174d
:03038d000207f371
:03038e000207d093
:03038f000207adb5
:0303900002078bd6
:03039100020768f8
:0303920002074718
:0303930002072539
:0303940002070459
:030395000206e37a
:030396000206c29a
:030397000206a2b9
:03039800020681d9
:03039900020662f7
:03039a0002064216
:03039b0002062334
:03039c0002060452
:03039d000205e670
:03039e000205c78e
:03039f000205a9ab
:0303a00002058cc7
:0303a10002056ee4
:0303a20002055100
:0303a3000205351b
:0303a40002051837
:0303a5000204fc53
:0303a6000204e06e
:0303a7000204c588
:0303a8000204a9a3
:0303a90002048ebd
:0303aa00020474d6
:0303ab0002045aef
:0303ac0002044008
:0303ad0002042621
:0303ae0002040d39
:0303af000203f353
:0303b0000203db6a
:0303b1000203c282
:0303b2000203aa99
:0303b300020392b0
:0303b40002037bc6
:0303b500020363dd
:0303b60002034df2
:0303b70002033608
:0303b8000203201d
:0303b90002030a32
:0303ba000202f448
:0303bb000202df5c
:0303bc000202c971
:0303bd000202b584
:0303be000202a098
:0303bf0002028cab
:0303c000020278be
:0303c100020265d0
:0303c200020251e3
:0303c30002023ef5
:0303c40002022c06
:0303c50002021918
:0303c60002020729
:0303c7000201f63a
:0303c8000201e44b
:0303c9000201d35b
:0303ca000201c26b
:0303cb000201b27a
:0303cc000201a289
:0303cd0002019298
:0303ce00020182a7
:0303cf00020173b5
:0303d000020164c3
:0303d100020156d0
:0303d200020147de
:0303d300020139eb
:0303d40002012bf8
:0303d50002011e04
:0303d60002011110
:0303d7000201041c
:0303d8000200f828
:0303d9000200eb34
:0303da000200e03e
:0303db000200d449
:0303dc000200c953
:0303dd000200be5d
:0303de000200b367
:0303df000200a970
:0303e00002009f79
:0303e10002009582
:0303e20002008c8a
:0303e30002008392
:0303e40002007a9a
:0303e500020071a2
:0303e600020069a9
:0303e700020061b0
:0303e80002005ab6
:0303e900020053bc
:0303ea0002004cc2
:0303eb00020045c8
:0303ec0002003fcd
:0303ed00020039d2
:0303ee00020033d7
:0303ef0002002edb
:0303f000020028e0
:0303f100020024e3
:0303f20002001fe7
:0303f30002001bea
:0303f400020017ed
:0303f500020014ef
:0303f600020010f2
:0303f70002000df4
:0303f80002000bf5
:0303f900020009f6
:0303fa00020007f7
:0303fb00020005f8
:0303fc00020003f9
:0303fd00020002f9
:0303fe00020002f8
:0303ff00020001f8
:03040000000000f9
:00000001FF
